:100000000C9434000C9451000C9451000C94510049
:100010000C9451000C9451000C9451000C9451001C
:100020000C9451000C9451000C9451000C949F00BE
:100030000C9451000C9451000C9451000C945100FC
:100040000C9451000C9451000C9451000C945100EC
:100050000C9451000C9451000C9451000C945100DC
:100060000C9451000C94510011241FBECFEFD8E026
:10007000DEBFCDBF11E0A0E0B1E0EAEBF2E002C0EC
:1000800005900D92A632B107D9F721E0A6E2B1E0C2
:1000900001C01D92A133B207E1F70E94E7000C9462
:1000A0005B010C9400001092C50087E68093C400A9
:1000B00088E18093C10086E08093C200089590910A
:1000C000C00095FFFCCF8093C6000895CF93DF93C7
:1000D000EC018991882319F00E945F00FACFDF912B
:1000E000CF9108958091C00087FFFCCF8091C6001A
:1000F0000895EAE7F0E0808187608083ACE7B0E0B4
:100100008C9180648C938081806880830895909125
:100110007C00907F90937C0090917C00892B809351
:100120007C0080917A00806480937A0080917A00CC
:1001300086FDFCCF809178009091790008951F9200
:100140000F920FB60F9211242F933F934F935F930B
:100150006F937F938F939F93AF93BF93CF93DF93CF
:10016000EF93FF93CAE7D0E08881806488838DE0B5
:1001700091E00E946600809128010E948700909380
:100180002A01809329014AE06BE271E00E94260176
:100190008BE291E00E9466008DE00E945F008AE0A1
:1001A0000E945F0088818883FF91EF91DF91CF915A
:1001B000BF91AF919F918F917F916F915F914F917F
:1001C0003F912F910F900FBE0F901F901895F894AC
:1001D000109280001092810081E49FE0909389004A
:1001E0008093880080918100886080938100809155
:1001F0008100816080938100809181008460809380
:10020000810080916F00826080936F000E9479006E
:100210000E94530080E091E00E9466008DE00E9401
:100220005F008AE00E945F00219A78940E94720029
:10023000809330010E945F0080913001883411F476
:10024000299AF4CF8C3491F72998F0CFBB274A3004
:1002500031F4992322F4BDE2909581959F4F0C943F
:100260003201BB27FB015527AA27880F991FAA1F18
:10027000A41710F0A41B83955051B9F7A05DAA33C1
:1002800008F0A95DA193009779F7B111B19311928C
:10029000CB010C944B01DC01FC01672F719177239A
:1002A000E1F7329704C07C916D9370836291AE1731
:0A02B000BF07C8F30895F894FFCFCC
:1002BA00436F6E6E65637465642021210052656325
:1002CA00656976696E67206F6E206368616E6E6518
:0602DA006C20303A200008
:00000001FF
